:020000040800F2
:10000000000004200D2300082D22000835220008DE
:1000100037220008392200083B22000800000000B7
:100020000000000000000000000000003D22000869
:100030003F2200080000000041220008432200087F
:100040005D2300085D2300085D2300085D23000890
:100050005D2300085D230008472200085D23000897
:100060005D2300084D220008532200085D2300088C
:100070005D2300085D2300085D2300085D23000860
:100080005D2300085D2300085D2300085D23000850
:100090005D2300085D2300085D2300085922000845
:1000A0005D2300085D2300085D2300085D23000830
:1000B0005D2300085D2300085D2300085D23000820
:1000C0005D2300085D2300085D2300085D23000810
:1000D0005D2300085D2300085D2300085D23000800
:1000E0005D2300085D2300085D2300085D230008F0
:1000F0005D2300085D2300085D2300085D230008E0
:10010000000000005D2300085D2300085D23000857
:1001100000000000000000005D2300085D230008CF
:100120005D2300085D2300085D2300085D230008AF
:100130005D2300085D2300085D2300085D2300089F
:100140005D2300085D2300085D230008612200088C
:100150005D2300085D2300085D2300085D2300087F
:100160005D2300085D23000800000000000000007F
:10017000000000000000000000000000000000007F
:100180005D2300085D23000800000000000000005F
:100190005D2300085D23000800000000000000004F
:1001A000000000000000000000000000000000004F
:1001B0000000000000000000000000005D230008B7
:0401C0005D230008B3
:1001D00010B5054C237833B9044B13B10448AFF381
:1001E00000800123237010BD0002002000000000E9
:1001F0006C83000808B5034B1BB103490348AFF3F8
:10020000008008BD00000000040200206C8300088C
:1002100001F0FF01102A2BDB10F0070F08D010F8B7
:10022000013B013A8B422DD010F0070F42B3F6D1BB
:10023000F0B441EA012141EA014122F007047FF0D4
:1002400000070023F0E80256083C85EA010586EA2B
:10025000010685FA47F5A3FA87F586FA47F6A5FA67
:1002600087F68EB9EED1F0BC01F0FF0102F0070273
:1002700032B110F8013B013A83EA010313B1F8D11E
:100280000020704701387047002D06BF35460338FF
:10029000073815F0010F07D1013015F4807F02BF38
:1002A000013015F4C03F0130F0BC0138704700BF89
:1002B00081F0004102E000BF83F0004330B54FEA17
:1002C00041044FEA430594EA050F08BF90EA020F84
:1002D0001FBF54EA000C55EA020C7FEA645C7FEA17
:1002E000655C00F0E2804FEA5454D4EB5555B8BF3A
:1002F0006D420CDD2C4480EA020281EA030382EAAB
:10030000000083EA010180EA020281EA0303362D3C
:1003100088BF30BD11F0004F4FEA01314FF4801C0F
:100320004CEA113102D0404261EB410113F0004F21
:100330004FEA03334CEA133302D0524263EB4303D8
:1003400094EA050F00F0A780A4F10104D5F1200E76
:100350000DDB02FA0EFC22FA05F2801841F10001D1
:1003600003FA0EF2801843FA05F359410EE0A5F1A5
:1003700020050EF1200E012A03FA0EFC28BF4CF0D6
:10038000020C43FA05F3C01851EBE37101F000458C
:1003900007D54FF0000EDCF1000C7EEB00006EEB99
:1003A0000101B1F5801F1BD3B1F5001F0CD3490823
:1003B0005FEA30004FEA3C0C04F101044FEA44527A
:1003C00012F5800F80F09A80BCF1004F08BF5FEA01
:1003D000500C50F1000041EB045141EA050130BDE1
:1003E0005FEA4C0C404141EB0101013C28BFB1F5F3
:1003F000801FE9D291F0000F04BF01460020B1FA3E
:1004000081F308BF2033A3F10B03B3F120020CDA10
:100410000C3208DD02F1140CC2F10C0201FA0CF0EE
:1004200021FA02F10CE002F11402D8BFC2F1200C53
:1004300001FA02F120FA0CFCDCBF41EA0C01904009
:10044000E41AA2BF01EB0451294330BD6FEA040452
:100450001F3C1CDA0C340EDC04F11404C4F120023D
:1004600020FA04F001FA02F340EA030021FA04F34F
:1004700045EA030130BDC4F10C04C4F1200220FAA6
:1004800002F001FA04F340EA0300294630BD21FAE4
:1004900004F0294630BD94F0000F83F4801306BFAA
:1004A00081F480110134013D4EE77FEA645C18BF9E
:1004B0007FEA655C29D094EA050F08BF90EA020F35
:1004C00005D054EA000C04BF1946104630BD91EA2D
:1004D000030F1EBF0021002030BD5FEA545C05D130
:1004E0004000494128BF41F0004130BD14F580046F
:1004F0003CBF01F5801130BD01F0004545F0FE41E3
:1005000041F470014FF0000030BD7FEA645C1ABF17
:10051000194610467FEA655C1CBF0B46024650EA4E
:10052000013406BF52EA033591EA030F41F400217A
:1005300030BD00BF90F0000F04BF0021704730B500
:100540004FF4806404F132044FF000054FF00001D5
:1005500050E700BF90F0000F04BF0021704730B596
:100560004FF4806404F1320410F0004548BF40426B
:100570004FF000013EE700BF42004FEAE2014FEAC0
:1005800031014FEA02701FBF12F07F4393F07F4F9B
:1005900081F06051704732F07F4208BF704793F09E
:1005A0007F4F04BF41F40021704730B54FF46074B1
:1005B00001F0004521F000411CE700BF50EA0102B4
:1005C00008BF704730B54FF000050AE050EA01025D
:1005D00008BF704730B511F0004502D5404261EBCD
:1005E00041014FF4806404F132045FEA915C3FF40E
:1005F000D8AE4FF003025FEADC0C18BF03325FEAAB
:10060000DC0C18BF033202EBDC02C2F1200300FA5B
:1006100003FC20FA02F001FA03FE40EA0E0021FA80
:1006200002F11444BDE600BF70B54FF0FF0C4CF46E
:10063000E06C1CEA11541DBF1CEA135594EA0C0F20
:1006400095EA0C0F00F0DEF82C4481EA030621EA5B
:100650004C5123EA4C5350EA013518BF52EA033596
:1006600041F4801143F4801338D0A0FB02CE4FF048
:100670000005E1FB02E506F00042E0FB03E54FF078
:100680000006E1FB03569CF0000F18BF4EF0010E70
:10069000A4F1FF04B6F5007F64F5407404D25FEA6C
:1006A0004E0E6D4146EB060642EAC62141EA55511F
:1006B0004FEAC52040EA5E504FEACE2EB4F1FD0C61
:1006C00088BFBCF5E06F1ED8BEF1004F08BF5FEADF
:1006D000500E50F1000041EB045170BD06F0004691
:1006E00046EA010140EA020081EA0301B4EB5C043E
:1006F000C2BFD4EB0C0541EA045170BD41F4801136
:100700004FF0000E013C00F3AB8014F1360FDEBF5A
:10071000002001F0004170BDC4F10004203C35DA36
:100720000C341BDC04F11404C4F1200500FA05F3B9
:1007300020FA04F001FA05F240EA020001F000425A
:1007400021F0004110EBD37021FA04F642EB0601D0
:100750005EEA430E08BF20EAD37070BDC4F10C04FA
:10076000C4F1200500FA04F320FA05F001FA04F2BE
:1007700040EA020001F0004110EBD37041F10001AA
:100780005EEA430E08BF20EAD37070BDC4F12005B5
:1007900000FA05F24EEA020E20FA04F301FA05F21D
:1007A00043EA020321FA04F001F0004121FA04F2C5
:1007B00020EA020000EBD3705EEA430E08BF20EA95
:1007C000D37070BD94F0000F0FD101F000464000CF
:1007D00041EB010111F4801F08BF013CF7D041EA51
:1007E000060195F0000F18BF704703F00046520055
:1007F00043EB030313F4801F08BF013DF7D043EA26
:100800000603704794EA0C0F0CEA135518BF95EADB
:100810000C0F0CD050EA410618BF52EA4306D1D162
:1008200081EA030101F000414FF0000070BD50EA81
:10083000410606BF1046194652EA430619D094EA0B
:100840000C0F02D150EA013613D195EA0C0F05D1F5
:1008500052EA03361CBF104619460AD181EA030149
:1008600001F0004141F0FE4141F470014FF0000001
:1008700070BD41F0FE4141F4780170BD70B54FF09C
:10088000FF0C4CF4E06C1CEA11541DBF1CEA13551C
:1008900094EA0C0F95EA0C0F00F0A7F8A4EB0504FE
:1008A00081EA030E52EA03354FEA013100F08880F5
:1008B0004FEA03334FF0805545EA131343EA1263BE
:1008C0004FEA022245EA111545EA10654FEA002673
:1008D0000EF000419D4208BF964244F1FD0404F52C
:1008E000407402D25B084FEA3202B61A65EB030588
:1008F0005B084FEA32024FF480104FF4002CB6EB45
:10090000020E75EB030E22BFB61A754640EA0C00C4
:100910005B084FEA3202B6EB020E75EB030E22BF04
:10092000B61A754640EA5C005B084FEA3202B6EB45
:10093000020E75EB030E22BFB61A754640EA9C0004
:100940005B084FEA3202B6EB020E75EB030E22BFD4
:10095000B61A754640EADC0055EA060E18D04FEA92
:10096000051545EA16754FEA06164FEAC30343EA32
:1009700052734FEAC2025FEA1C1CC0D111F4801FFF
:100980000BD141EA00014FF000004FF0004CB6E7F8
:1009900011F4801F04BF01430020B4F1FD0C88BF97
:1009A000BCF5E06F3FF6AFAEB5EB030C04BFB6EBA2
:1009B000020C5FEA500C50F1000041EB045170BD95
:1009C0000EF0004E4EEA113114EB5C04C2BFD4EBC2
:1009D0000C0541EA045170BD41F480114FF0000E46
:1009E000013C90E645EA060E8DE60CEA135594EAC2
:1009F0000C0F08BF95EA0C0F3FF43BAF94EA0C0FC5
:100A00000AD150EA01347FF434AF95EA0C0F7FF439
:100A100025AF104619462CE795EA0C0F06D152EA8D
:100A200003353FF4FDAE1046194622E750EA410671
:100A300018BF52EA43067FF4C5AE50EA41047FF482
:100A40000DAF52EA43057FF4EBAE12E74FF0FF3CE7
:100A500006E000BF4FF0010C02E000BF4FF0010CB8
:100A60004DF804CD4FEA410C7FEA6C5C4FEA430C31
:100A700018BF7FEA6C5C1BD001B050EA410C0CBF80
:100A800052EA430C91EA030F02BF90EA020F0020E2
:100A9000704710F1000F91EA030F58BF994208BF49
:100AA00090422CBFD8176FEAE37040F00100704706
:100AB0004FEA410C7FEA6C5C02D150EA013C07D15D
:100AC0004FEA430C7FEA6C5CD6D152EA033CD3D0A8
:100AD0005DF8040B704700BF8446104662468C46A2
:100AE0001946634600E000BF01B5FFF7B7FF0028D5
:100AF00048BF10F1000F01BD4DF808EDFFF7F4FFFE
:100B00000CBF012000205DF808FB00BF4DF808ED88
:100B1000FFF7EAFF34BF012000205DF808FB00BFAB
:100B20004DF808EDFFF7E0FF94BF012000205DF8CD
:100B300008FB00BF4DF808EDFFF7CEFF94BF012082
:100B400000205DF808FB00BF4DF808EDFFF7C4FF7B
:100B500034BF012000205DF808FB00BF4FEA410CC4
:100B60007FEA6C5C02D150EA013C0AD14FEA430CA7
:100B70007FEA6C5C02D152EA033C02D14FF00000E4
:100B800070474FF0010070474FEA410212F5001222
:100B900015D211D56FF47873B3EB625212D94FEAC4
:100BA000C12343F0004343EA505311F0004F23FAAE
:100BB00002F018BF404270474FF00000704750EA03
:100BC000013005D111F0004008BF6FF000407047C0
:100BD0004FF00000704700BF4A0011D212F500121A
:100BE00011D20DD56FF47873B3EB62520ED44FEA85
:100BF000C12343F0004343EA505323FA02F0704705
:100C00004FF00000704750EA013002D14FF0FF3042
:100C100070474FF00000704753B94AB9002908BF28
:100C200000281CBF4FF0FF314FF0FF3000F06EB9CD
:100C3000ADF1080C6DE904CE00F006F8DDF804E033
:100C4000DDE9022304B070472DE9F047089D044612
:100C50008C46002B40F083808A42174647D9B2FA6F
:100C600082F242B1C2F1200024FA00F09140974094
:100C700040EA010C94404FEA1748230CBCFBF8F6FD
:100C80001FFA87FE08FB16C143EA014306FB0EF17B
:100C9000994209D9FB1806F1FF3080F01981994279
:100CA00040F21681023E3B445B1AA4B2B3FBF8F05B
:100CB00008FB103344EA034400FB0EFEA64509D9A5
:100CC0003C1900F1FF3380F00581A64540F2028116
:100CD00002383C4440EA0640A4EB0E0400261DB155
:100CE000D4400023C5E900433146BDE8F08702B98E
:100CF000FFDEB2FA82F2002A50D1CB1B4FEA174E28
:100D00001FFA87F80126B3FBFEFC210C0EFB1C33F7
:100D100041EA034108FB0CF38B4207D979180CF127
:100D2000FF3002D28B4200F2E9808446C91AA3B296
:100D3000B1FBFEF00EFB101143EA014408FB00F882
:100D4000A04507D93C1900F1FF3302D2A04500F2BB
:100D5000D9801846A4EB080440EA0C40BFE78B4258
:100D600009D9002D00F0B1800026C5E90001304608
:100D70003146BDE8F087B3FA83F6002E4AD18B42A4
:100D800002D3824200F2B880841A61EB0301012091
:100D90008C46002DA8D0C5E9004CA5E7C2F1200380
:100DA00020FA03F6974001FA02F04FEA174ED940B5
:100DB0003043030CB1FBFEF61FFA87F80EFB161149
:100DC00043EA014306FB08F1994204FA02F409D907
:100DD000FB1806F1FF3C80F08D80994240F28A803A
:100DE000023E3B445B1A81B2B3FBFEF00EFB1033B4
:100DF00041EA034100FB08F38B4207D9791800F15F
:100E0000FF3C73D28B4271D902383944CB1A40EA85
:100E1000064678E7C6F1200C03FA06F422FA0CF332
:100E20001C4320FA0CF701FA06F34FEA144E21FA9C
:100E30000CF11F433B0CB1FBFEF91FFA84F80EFBCB
:100E4000191143EA014109FB08FA8A4502FA06F240
:100E500000FA06F308D9611809F1FF3048D28A4533
:100E600046D9A9F102092144A1EB0A01BFB2B1FBA5
:100E7000FEF00EFB101147EA014700FB08F8B845E9
:100E800007D9E71900F1FF312ED2B8452CD9023825
:100E9000274440EA0940A7EB0807A0FB02894F4519
:100EA000C64649461AD317D05DB1B3EB0E0267EBC5
:100EB000010707FA0CFCF2404CEA0202F740C5E9D0
:100EC000002700263146BDE8F0872E4628460BE76E
:100ED0000646E9E61846FDE64345E5D2B8EB020EC4
:100EE00069EB04010138DFE70846D2E760468DE789
:100EF0008146B9E7664675E730464AE7ACF1020C31
:100F0000394413E702383C4424E700BF704700BF70
:100F10000123837570471FB54FF0FF34CDE90134CD
:100F2000009201230A46C17D006802F097F804B0E0
:100F300010BD1FB54FF0FF34CDE9013400920123FD
:100F40000A46C17D006801F0F9FF04B010BD000041
:100F5000002307B5802A43608360C36003614FF0BC
:100F6000010301608382C27510D10C4B836140F292
:100F70000B43838382238DF8043001AA012344218B
:100F8000FFF7D7FF002003B05DF804FB40F2073302
:100F900003830723837602234377EBE70008090ADC
:100FA00073B52E4E04460025637D627F9A4204D8B5
:100FB00001232846A38202B070BD227DD2B1234412
:100FC00040215A7E237E5B0043EA02138DF80030F5
:100FD0006A4601232046FFF7ACFF054650B98DF85D
:100FE0000400034601AA08212046FFF7A2FF054698
:100FF00000B92075012301AA28212046FFF78BFFA5
:101000009DF80430DB09CFD0032301AA102120462C
:10101000FFF781FF05460028C6D19DF804309DF8F2
:101020000520A0751B0443EA02239DF80620134304
:1010300001222275E27D822A08BF83F4000307EEB5
:10104000903A627D08BF3360F8EEE77A04EB8201E4
:101050000132C1ED017A6275A6E700BF5802002097
:10106000F8B5064610460F46FFF774FA9FED0E0BD3
:1010700041EC110B06F0CCF951EC100BFFF784FD9D
:10108000FFF768FA32463B4604460D46FFF7CCFAB6
:1010900041EC100B06F076F9224651EC100B2B4672
:1010A000FFF7ECFBF8BD00BF00000000000024408B
:1010B0002DE9F04F2DED048B83B0DDE910AB9DEDF4
:1010C000147BCDE90001B0EE479AF0EE679A5046E6
:1010D0005946FFF7F1F8524604460D465B46DDE9F6
:1010E0001201FFF7E9F806460F4602460B46204676
:1010F0002946FFF70BFD08B934463D4622462B46EC
:1011000050465946FFF7D8F85246804689465B4616
:1011100020462946FFF7D2F842464B4604460D4684
:10112000FFF7CAF841EC180B314B002251EC190BB8
:10113000FFF7A4FB53EC182BFFF776FADDE9002349
:1011400006460F4640464946FFF7E0FC08B9CDE9A0
:101150000089DDE9000122462B46FFF7D7FC08B1E4
:10116000DDE9004532463B4650465946FFF7A4F8B4
:1011700022462B46FFF7CAFC60B132463B4650463A
:101180005946FFF79BF822462B46FFF7DDFC08B1D6
:1011900054465D4653EC182B13A1D1E90001FFF72B
:1011A0006DFB06460F4632463B46404609F100417C
:1011B000FFF73AFA00220023FFF780F83246804614
:1011C00089463B4620462946FFF72EFA02460B4643
:1011D00040464946FFF772F8022203B0BDEC048B8B
:1011E000BDE8F04FFFF73CBF00000000E0FFEF401C
:1011F000000059402DE9F8430368D1E9006704462F
:101200008846002B40F0BE8000220023304639463D
:10121000FFF772FCB0FA80F56D0939463046FFF7EA
:10122000DBFC81462846FFF795F932463B46FFF73F
:101230006DFC002808BF4D46C4E90059A568284642
:10124000FFF778F93B463246FFF77EFCE36800285B
:1012500008BF4D46D8E90267A560002B40F0948096
:101260000022002330463946FFF746FCB0FA80F5ED
:101270006D0939463046FFF7AFFC81462846FFF737
:1012800069F932463B46FFF741FC002808BF4D464E
:10129000C4E9035965692846FFF74CF932463B46D5
:1012A000FFF752FC002808BF4D466561A569D8E9E3
:1012B00004673DB12846FFF73DF932463B46FFF74C
:1012C00025FC20B930463946FFF786FC05463946ED
:1012D000A5613046FFF780FC256AE061814628461B
:1012E000FFF728F932463B46FFF72EFC002808BFDF
:1012F0004D462562656AD8E906673DB12846FFF785
:1013000019F932463B46FFF701FC20B93046394611
:10131000FFF762FC05466562A56A2846FFF70AF9F1
:1013200032463B46FFF710FC20B930463946FFF7FE
:1013300053FC0546D4E90C67A56200220023304621
:101340003946D8E90889FFF7D7FB30B942464B4602
:1013500030463946FFF7DAFB08B946464F46C4E93E
:101360000C67D4E91067C4E90E8942464B46304603
:101370003946FFF7E9FB08B946464F46C4E910670E
:10138000BDE8F883012548E7012572E72DE9F84318
:101390000368D1E9006704468946002B51D1002239
:1013A000002330463946FFF7A7FBB0FA80F56D09F8
:1013B00039463046FFF710FC80462846FFF7CAF84A
:1013C00032463B46FFF7A2FB002808BF4546C4E96A
:1013D0000058A5682846FFF7ADF83B463246FFF7B0
:1013E000B3FBE368002808BF4546D9E90267A5605A
:1013F0004BBB0022002330463946FFF77DFBB0FA95
:1014000080F56D0939463046FFF7E6FB80462846F1
:10141000FFF7A0F832463B46FFF778FB002808BFED
:101420004546C4E9035865692846FFF783F8324604
:101430003B46FFF789FB002808BF45466561BDE8CC
:10144000F8830125B4E70125DCE738B504460D46ED
:10145000D1E90001FFF7C0FB6060D5E90201FFF7A9
:10146000BBFB206138BD00002DE9F04F2DED048B52
:1014700091F82930C44D052B9ABF0133DBB200230C
:1014800081F8293089B0834600688A46FFF752F810
:10149000002402460B46DBF80800CDE90623CDE91F
:1014A0000445FFF747F8CDE90201DBF80400FFF738
:1014B00041F8DDE90623CDE90001DAE90001FFF793
:1014C000F7FDFFF789FB80B2A0F50040FFF742F877
:1014D000CAE90001DBF80C00FFF72CF802460B46C6
:1014E000DBF81400CDE90623CDE90445FFF722F827
:1014F000CDE90201DBF81000FFF71CF8DDE9062357
:10150000CDE90001DAE90201FFF7D2FDFFF764FB44
:1015100080B2A0F50040FFF71DF8CAE90201DBF830
:101520001800FFF707F80B46984902460020CDE95E
:101530000401DBF82000CDE90623FEF7FBFFCDE92F
:101540000201DBF81C00FEF7F5FFDDE90623CDE91B
:101550000001DAE90401FFF7ABFD8D4B0022FEF735
:10156000ABFECAE90401DBF82400FEF7E3FF804686
:10157000DBF82800DAE906458946FEF7DBFF42463C
:1015800006460F464B4620462946FFF7DDFA08B9C6
:1015900044464D4622462B4630463946FFF7D4FA9C
:1015A00008B934463D4642464B4630463946FEF77A
:1015B00083FE02460B4670A1D1E90001FFF75EF9F8
:1015C00006460F4632463B46404609F10041FFF7CA
:1015D0002BF800220023FEF771FE22468046894642
:1015E0002B4630463946FFF71FF80B460246494660
:1015F0004046FEF763FE0222FFF732FD644B0022F5
:10160000FEF75AFE634BCAE906010022DBE90C0132
:10161000FEF752FEDAE908450B4602462946204607
:10162000FFF774FA003818BF01208AF82800012259
:1016300020462946FFF714FDDBE90C45564B804652
:1016400089460022DBE90E01FEF738FE22462B46D2
:10165000FEF732FE4AA3D3E90023FFF70FF94F4B01
:101660000022FEF7E1FF22462B46FEF727FE4A4BFB
:10167000002206460F4620462946FEF71FFE044676
:101680000D4602460B4640464946FFF75DFA08B94B
:10169000A046A94642464B4630463946FFF754FA23
:1016A00008B9B046B94622462B4630463946FEF7C1
:1016B00003FE02460B4630A1D1E90001FFF7DEF838
:1016C00041EC180B204653EC182B05F10041FEF7B6
:1016D000ABFF00220023FEF7F1FD424606460F460F
:1016E0004B4651EC180BFEF79FFF0B46024639465E
:1016F0003046FEF7E3FD0222FFF7B2FC9AF82930EC
:101700000AEBC303CAE90801C3E928010AF1A004EE
:101710000AF1D805F4E8022351EC190BFEF7CEFDCF
:10172000A54202460B4643EC192BF3D11C4B002279
:10173000FFF7A4F80022002304460D46FFF704FA41
:1017400058B10DA3D3E9002320462946FFF7DEF95F
:1017500028B909A5D5E9004501E0002400250C4B76
:10176000002220462946FEF7A7FDCAE9080109B074
:10177000BDEC048BBDE8F08F00000000E0FFEF40FF
:101780000000000000C0524000000440000008407B
:101790000000E040000014400000E03F000059401D
:1017A00000001C40F0B593B048220146684604F0A2
:1017B00075FC00F049FF0221052000F0D7FF6420EE
:1017C00000F064FF4FF4FA7000F02EFE0D4E0E4F45
:1017D0006C4654F8042B00233146022000F080FFB1
:1017E000054650B904360A2000F050FFBE42F0D141
:1017F00000F03CFF284613B0F0BD13B0BDE8F04048
:1018000000F03EBF000002084800020830B5C9B031
:101810006A46074B074C114653F8045B42F8045BD9
:10182000A342F9D1482204F039FC49B030BD00BFD1
:10183000000002084C00020810B50023037081600C
:10184000044600F0EBFD606010BD00000A4603286E
:101850000ED8DFE800F00206090B0648802101F0EF
:10186000D7B801210448FAE70221FBE70421F9E790
:10187000704700BF000002400004024038B5044633
:101880000D4600F0CBFDD4E901321344834217D258
:10189000606001212078FFF7D9FF23782DB113B9BB
:1018A0000323237004E0013BFBE7032B06D12570E3
:1018B00020780021BDE83840FFF7C8BF0133F0E7CA
:1018C00038BD816070470123037270471FB54FF028
:1018D000FF34CDE90134009201230A46006820213B
:1018E00001F0BCFB04B010BD13B505236A464621C8
:1018F0000446FFF7EBFF68B99DF801209DF8023020
:1019000043EA0223A3809DF803209DF8043043EAB4
:101910000223E38002B010BD1FB54FF0FF34CDE9C4
:101920000134009201230A460068202101F006FBE1
:1019300004B010BD37B501230D460DF10702022199
:101940000446FFF7C3FF9DF8073023F01C0343EA6A
:1019500085018DF8071001230DF1070202212046B1
:10196000FFF7DAFF03B030BD37B5002504464FF46A
:1019700060430160456005720621ADF804308DF8C2
:101980000350FFF7D7FF01AA294602232046FFF79D
:10199000C3FF2B460DF1030216212046FFF7BCFFC3
:1019A00003B030BD0000000037B5B0F90450044664
:1019B00085EAE570A0EBE57080B2FEF7CBFDB4F9E7
:1019C0000640024684EAE470A0EBE4700B4680B265
:1019D000CDE90023FEF7BEFD002DDDE9002312DD79
:1019E000002C3ADDFEF74AFF41EC100B05F020FB1E
:1019F00025A3D3E9002351EC100BFEF715FE41ECB3
:101A0000100B03B030BD3BD0002C13DDFEF736FFCA
:101A100041EC100B05F00CFB1BA3D3E9002351ECA8
:101A2000100BFEF701FE0B461B4902460020FEF795
:101A300043FCE4E724D0FEF721FF41EC100B05F056
:101A4000F7FA11A3D3E9002351EC100BFEF7ECFDDC
:101A5000114B0022FEF732FCD1E711D0FEF70EFF4A
:101A600041EC100B05F0E4FA07A3D3E9002351EC95
:101A7000100BFEF7D9FD02460B4600200749D6E7BA
:101A80009FED030BBDE700BFF8C1631ADCA54C4016
:101A900000000000000000000080664000807640EA
:101AA0000123037270471FB54FF0FF34CDE90134B5
:101AB000009201230A460068442101F0CFFA04B0E5
:101AC00010BD13B50021017201230DF10602044679
:101AD000FFF7E9FF01230DF1070219462046FFF742
:101AE000E2FF30B99DF807209DF8063043EA022353
:101AF000636002B010BD1FB54FF0FF34CDE9013473
:101B0000009201230A460068442101F017FA04B04C
:101B100010BD37B5FF23002504468DF807300DF1C1
:101B2000070201604560057201230821FFF7E3FF0A
:101B300001230DF1070209212046FFF7DCFF2846AB
:101B400003B030BD0123013903FA01F143681942A2
:101B500014BF01200020704738B50E480E4C0F4DC1
:101B6000FFF722FF686884ED080BFEF705FDC4E966
:101B70000201A8680A4DFEF7FFFCC4E90001E8680D
:101B8000FEF7FAFCC4E904012869FEF7F5FCC4E994
:101B9000060138BD00050020B802002054040020D2
:101BA0008404002030B5102595B02A46002109A8EC
:101BB00004F082FA1422002102A804F07DFA214BDD
:101BC000002100911A6C42F080521A641B6C03F0E1
:101BD00080530093009B1C4B01911A6842F44042D1
:101BE0001A601B680F9503F440430193019B012287
:101BF0004FF480330224CDE907234FF48003CDE96D
:101C00000D434FF4C8710423CDE9101307A808232E
:101C1000CDE9123402F0EEFA08B172B6FEE70F23F6
:101C2000CDE902344FF48053CDE90530049003210F
:101C300002A802F05DF808B172B6FEE702F02CF8D7
:101C400015B030BD003802400070004000000000B8
:101C50002DE9F04F8BB000F0BBFBFFF7A3FF142280
:101C600000210DEB020004F027FA0024B24B02948D
:101C70001A6BB248B24DDFF818A342F080021A6323
:101C80001A6B02F080020292029A03941A6B42F0DD
:101C900001021A631A6B02F001020392039A049480
:101CA0001A6B42F002021A631B6B03F002030493E7
:101CB00022468021049B00F0ABFEA2482246072169
:101CC00000F0A6FE21224FF488139C48079405A932
:101CD000CDE9052300F070FD4FF404131821CDE980
:101CE00005139648079405A900F066FD012793485F
:101CF00005A94FF08008CDE90587CDE9074400F03C
:101D00005BFD07238F4805A9CDE90537CDE90744D9
:101D100000F052FD8C4B2C624FF480492846C5E9F7
:101D2000003AC5E90244C5E90494C5E9064401F056
:101D30005DF8064608B172B6FEE7844C03F0E6FE95
:101D4000834B26622046C4E90496C4E9003AC4E9FC
:101D50000266C4E9066601F049F8814608B172B628
:101D6000FEE729467B487B4EFFF7D3FE7948FFF715
:101D7000A8FE78480521FFF7E5FE0246F0B162B6FD
:101D800003F0B8FE02F0A8F900F0EAFA724BC3F8CB
:101D90000890C3F80490C3F80090704B1A6822F0C2
:101DA00003021A601A6842F001021A606C4B1B6849
:101DB00083F308886B4B1B689847FEE70146019048
:101DC000062000F057FB062000F086FB019A092050
:101DD000114600F04FFB092000F07EFB019A0A201B
:101DE000114600F047FB0A2000F076FB019A17200D
:101DF000114600F03FFB172000F06EFB5A483221DD
:101E0000FFF71AFD21465948FFF7AEFD4246294625
:101E10005748FFF79DF8822229465648FFF798F861
:101E200039463046FFF78EFE0446002800F0DD807C
:101E300000F0F4FA504C514FDFF830B1504D00F53E
:101E40009C402030206000F0E9FA0FF2E409D9E963
:101E50000089A2463860002400F0E0FADAF8003089
:101E600038609842C0F0968000210846FFF7EEFCEB
:101E700000210120FFF7EAFC00210220FFF7E6FC29
:101E800000210320FFF7E2FC37483221FFF719FD5C
:101E90003C48FFF787FC01210020FFF7D7FC012118
:101EA0000846FFF7D3FC01210220FFF7CFFC0121F8
:101EB0000320FFF7CBFCDFF8B490DFF8B4802D4FA0
:101EC000314D324C4846FFF70FFD4046FFF768F8AA
:101ED0003846FFF765F8FFF73FFE1E48FFF7F1FDB4
:101EE00029462848FFF7C0FAD5E90001FEF74CFE65
:101EF0002080D5E90201FEF747FE6080D5E90401A4
:101F0000FEF742FEA080D5E90601FEF73DFEE08027
:101F1000D5E90801FEF738FE95F8283020812373B3
:101F200020467368638103F01BFEC9E7AFF30080AE
:101F300000000000004CCD4000380240000002408C
:101F40000004002000040240005400406002002011
:101F5000005C00400C05002010E000E0003801406B
:101F60000000FF1F0400FF1FA80400200005002040
:101F7000840400205404002018050020A40400203C
:101F800000407F40B8040020B80200207404002004
:101F9000801A06005846FFF7A7FC4548FFF700F8EF
:101FA0004448FEF7FDFFFFF7D7FD43494348FFF7DD
:101FB00021F93868FEF7BEFA42464B46FEF75EFC52
:101FC00022462B46FEF730FB02460B4620462946AA
:101FD000FEF772F9FEF700FE81B23948FFF771FC97
:101FE00037480121FFF74AFC36E702213046FFF768
:101FF000A9FD00284BD0314DDFF8D0A0314FDFF8DC
:10200000B4B02846FFF702FC00F008FA00F51C50B7
:102010001030CAF8000000F001FA0FF28C09D9E97B
:102020000089C5E90044C5E90344AC606C61264DF4
:102030003860002400F0F2F9DAF800303860984295
:10204000BFF412AF5846FEF7ABFFFFF785FD1A4904
:102050001A48FFF79BF93868FEF76CFA42464B4680
:10206000FEF70CFC22462B46FEF7DEFA02460B4634
:1020700020462946FEF720F9FEF7AEFD81B2104852
:10208000FFF71FFC0E480121FFF7F8FBD2E70B48D2
:10209000FFF7BCFB0748FEF783FFFFF75DFD06492E
:1020A0000648FFF7D2F9F6E600000000004CCD40EC
:1020B0008404002054040020B8020020B80400204A
:1020C000A8040020A404002000407F401805002040
:1020D000102806D0202807D0082808D10448FEF789
:1020E00017BF0448FFF7DCBC0348FFF7ECBB7047A1
:1020F000840400200C0500200005002072B6FEE7D5
:1021000082B00C4B002100915A6C42F480425A6418
:102110005A6C02F480420092009A01911A6C42F0CB
:1021200080521A641B6C03F080530193019B02B030
:10213000704700BF00380240F0B514228BB004464F
:1021400000210DEB020003F0B7FF2368324A9342EF
:1021500024D1324C324800250095236B43F0020312
:102160002363236B079503F002030093009BC022B7
:102170001223CDE9052303210423CDE9081305A982
:1021800000F01AFB0195236C43F400132364236CC5
:1021900003F400130193019B0BB0F0BD214A93425D
:1021A000FAD11E4C204800250295236B43F0010311
:1021B0002363236B03F001030293029B0395236BBC
:1021C00043F002032363236B079503F00203039399
:1021D000039B12274FF48073CDE9053703260423B0
:1021E00005A9CDE9086300F0E7FA1023CDE905372A
:1021F0000B48092305A90993CDE9075600F0DCFA3D
:102200000495236C43F400032364236C03F400035C
:102210000493049BC0E700BF005400400038024014
:1022200000040240005C00400000024008B501F0DC
:1022300013FEFEE7FEE7FEE7FEE7FEE770477047A6
:10224000704700F0DFB8012000F0E8BB082000F084
:10225000E5BB102000F0E2BB202000F0DFBB000057
:10226000014801F0E7B800BF200A002070B50E4613
:1022700014460025A54201DB204670BDAFF3008067
:1022800070550135F6E770B50E4614460025A54297
:1022900001DB204670BD705DAFF300800135F6E7CD
:1022A0004FF0FF3070474FF400534B6000207047F1
:1022B00001207047002070470B4B196810B502468B
:1022C00009B90A491960186809490A4C0244091BEE
:1022D0008A4206D903F0B8FE0C2303604FF0FF30AA
:1022E00010BD1A60FCE700BF1C020020380E002061
:1022F0000000042000040000034AD2F8883043F4B0
:102300007003C2F88830704700ED00E0DFF834D089
:102310000D480E490E4A002302E0D458C45004333D
:10232000C4188C42F9D30B4A0B4C002301E0136014
:102330000432A242FBD3FFF7DFFF03F08BFEFFF76F
:1023400087FC70470000042000000020FC010020F2
:102350001085000800020020380E0020FEE77047BC
:1023600010B5084B4FF0FF3200241A621C625A620B
:102370005C621A611C615A615C61FFF7F0FF2046E4
:1023800010BD00BF0038024038B50E4A0E4B05465E
:1023900018784FF47A73B3FBF0F31068B0FBF3F0E6
:1023A00000F0BCF8044658B90F2D09D8024629465A
:1023B0004FF0FF3000F05EF8044B20461D6038BD42
:1023C0000120FCE70000002004000020080000209D
:1023D00008B50B4B1A6842F400721A601A6842F48E
:1023E00080621A601A6842F480721A60032000F05A
:1023F0002FF80F20FFF7C8FFFFF782FE002008BD6F
:10240000003C0240034A044B11681B780B441360E4
:10241000704700BF1C05002004000020014B186815
:10242000704700BF1C05002038B50446FFF7F6FFD3
:10243000631C1CBF054B1B78054618BFE418FFF74B
:10244000EDFF431BA342FAD338BD00BF04000020B8
:102450000749CA6822F4E0620302120403F4E0634D
:10246000120C134343F0BF6343F40033CB60704757
:1024700000ED00E0164B30B5DC68C4F30224C4F173
:102480000705231D042D28BF0425062B4FF0FF331D
:102490008CBF033C002403FA05F521EA0501A340A3
:1024A00022EA0302A140002841EA0203ACBF00F186
:1024B0006040084A4FEA0313B8BF00F00F00DBB2D8
:1024C000AABF00F56140135480F8003330BD00BF4F
:1024D00000ED00E014ED00E0002808DB42090123D4
:1024E00000F01F0003FA00F0014B43F82200704790
:1024F00000E100E000280DDB4309012200F01F008D
:1025000002FA00F02033044A42F82300BFF34F8F51
:10251000BFF36F8F704700BF00E100E00138B0F1FA
:10252000807F0AD2064B074A5860F02182F82310B8
:102530000020072298601A6070470120704700BF92
:1025400010E000E000ED00E0094910B50C6924F44A
:1025500040740C610C6944F440740C610C6944F0E3
:1025600001040C610260BFF36F8F436010BD00BFB8
:10257000003C0240074B1A6922F440721A611A6942
:1025800042F400721A611A6942F001021A61016094
:10259000704700BF003C0240074B1A6922F44072AA
:1025A0001A611A6942F480721A611A6942F00102D2
:1025B0001A610180704700BF003C0240204BDA687E
:1025C000D00606D51F49CA6942F01002CA6110221E
:1025D000DA60DA68910606D51A49CA6942F008023B
:1025E000CA612022DA60164BDA68520606D5154910
:1025F000CA6942F00402CA614022DA60DA68100651
:1026000006D51049CA6942F00202CA618022DA6026
:102610000B4BDA68D10507D50A49CA6942F00102B5
:10262000CA614FF48072DA60DA68920706D505490C
:10263000CA6942F02002CA610222DA60704700BF14
:10264000003C024020050020064B1A69002ABFBF4B
:10265000054A5A6002F188325A60BABF1869C00F41
:1026600000207047003C024023016745034A13697C
:1026700043F0004313610020704700BF003C02405C
:10268000014BD869704700BF20050020F8B5124BF8
:10269000124D00220446DA61FFF7C0FE2F460646BF
:1026A000EB68DA030CD4EB68DB0744BF0123EB6073
:1026B000F86810F4F97007D0FFF780FF012003E0FD
:1026C000611CEDD00CB90320F8BDFFF7A7FE801BFD
:1026D000A042E5D9F7E700BF20050020003C0240FA
:1026E000F7B5204E01931446327E012A07460D4667
:1026F00035D001224CF250303276FFF7C7FFB8B91F
:10270000019BCFB9184B186920F4407018611A6901
:102710001A611869E4B240F0010018612C704CF2A3
:102720005030FFF7B3FF104A136923F00103136120
:102730000023337603B0F0BD012F04D1A1B22846A7
:10274000FFF72AFFEBE7022F04D121462846FFF7C7
:1027500011FFE4E722462846FFF7F6FEDFE70220F6
:10276000E8E700BF20050020003C024039B1012904
:102770001CD002290CBF4FF400714FF440710D4B77
:102780001A6922F440721A611A69114319611A69AF
:1027900022F0F8021A611A6942EAC00040F0020011
:1027A00018611A6942F480321A6170474FF48071DF
:1027B000E5E700BF003C02402DE9F74FDFF86C91E0
:1027C000584A00230D6801249C4004EA0506AC43E6
:1027D00040F09C804D68032705F003044FEA43084E
:1027E00007FA08FC671E012F6FEA0C0C34D88768C3
:1027F00007EA0C0ECF6807FA08F747EA0E0787606A
:10280000476827EA060EC5F300179F4047EA0E0700
:102810004760C76807EA0C0E8F6807FA08F747EAAF
:102820000E07022CC76019D14FEAD30A00EB8A0ABF
:1028300003F0070BDAF820704FEA8B0B4FF00F0E06
:102840000EFA0BFE27EA0E0E0F6907FA0BF747EA9E
:102850000E07CAF8207001E0032CDAD1076804FAE9
:1028600008F407EA0C0C44EA0C0415F4403F046039
:102870004CD000240194D9F8444044F48044C9F871
:102880004440D9F8444023F0030707F1804704F49B
:10289000804407F59C37019403F0030E019CBC684B
:1028A0004FEA8E0E4FF00F0C0CFA0EFC24EA0C0CC3
:1028B0001D4CA04231D004F58064A0422FD004F515
:1028C0008064A0420CBF0224072404FA0EF444EAF8
:1028D0000C04BC601468F74315F4803F0CBF3C4007
:1028E00034431460546815F4003F0CBF3C4034433B
:1028F0005460946815F4801F0CBF3C4034439460CE
:10290000D468AD0254BF3C403443D4600133102B33
:102910007FF458AF03B0BDE8F08F0024D5E7012461
:10292000D3E700BF003C01400000024000380240F5
:10293000354A2DE9F04F00234FF0010A4FF00F0800
:102940004FF0030B0AFA03FC3CEA01040CEA01060F
:1029500050D123F0030404F1804404F59C3403F0C7
:102960000307A568BF0008FA07F909EA050E274D15
:10297000A84244D005F58065A84242D005F580659F
:10298000A8420CBF02250725BD40754513D1156827
:1029900025EA06051560556825EA0605556095681F
:1029A00025EA06059560D56825EA0606D660A5687D
:1029B00025EA0905A56005685C000BFA04F4DE0849
:1029C00025EA040500EB8606056003F00705376A73
:1029D000AD0008FA05F527EA05053562C56825EA60
:1029E0000405C560456825EA0C054560856825EA4B
:1029F000040484600133102BA4D1BDE8F08F0025BE
:102A0000C2E70125C0E700BF003C014000000240D2
:102A10000AB1816170470904FBE70000044A51696B
:102A2000014208B502D05061FFF752FB08BD00BF5C
:102A3000003C014001684B6913F480634FF00002D1
:102A400010D06FF480634B612023026380F83D3027
:102A500080F83E20036C80F83C2043F004030364BC
:102A600001207047184670472DE9F04104460F4693
:102A7000164698462568686927EA000080B2B8B112
:102A80006B695A0516D52B6843F400732B606FF4FD
:102A900080636B6120220023236384F83D2084F847
:102AA0003E30226C42F00402226484F83C30012063
:102AB000BDE8F081731CDED0FFF7B0FCA0EB08008E
:102AC000B04201D8002ED5D100232022236384F800
:102AD0003D2084F83E30226C42F02002E4E770B5DD
:102AE00004460D46164623685B695B0701D5002046
:102AF00070BD2046FFF79EFFA8B96A1CF3D0FFF710
:102B00008DFC801BA84201D8002DECD1002320228F
:102B1000236384F83D2084F83E30226C84F83C30F6
:102B200042F0200222640120E2E770B504460D461F
:102B3000164621684B6913F0400301D0002010E0D5
:102B40004A69D2060ED56FF010024A612022236333
:102B500084F83D2084F83E30226C226484F83C30B6
:102B6000012070BDFFF75AFC801BA84201D8002D40
:102B7000DFD100232022236384F83D2084F83E30F7
:102B8000226C42F02002E8E72DE9F84606460F469F
:102B900091461D464FEA114A3368BAF1010F0CBF46
:102BA0005C699C6927EA0404A4B2B4FA84F4640959
:102BB000A14501D0002017E06A1CEED0FFF72EFCE3
:102BC000089BC01AA84201D8002DE5D1002320227D
:102BD000336386F83D2086F83E30326C86F83C3010
:102BE00042F0200232640120BDE8F88670B5044648
:102BF0000D46164623685B691B0601D5002070BD93
:102C00002046FFF717FFA8B96A1CF3D0FFF706FCB0
:102C1000801BA84201D8002DECD100232022236381
:102C200084F83D2084F83E30226C84F83C3042F039
:102C3000200222640120E2E72DE9F04315460268F4
:102C400085B0DDE90C789946136843F4807313600E
:102C50000E463B46CDF8008000224FF0011104469D
:102C6000FFF792FF236838B11B68DB0502D54FF4EC
:102C70000073236403200AE006F0FE061E61194972
:102C800043463A462046FFF7EFFE18B1012005B053
:102C9000BDE8F083236803905A6903929B6903930C
:102CA000424639462046039BFFF7A0FF40B1236C04
:102CB000042B01BF2268136843F400731360E5E737
:102CC000B9F1010F236802D1EDB21D61DFE72A0AD5
:102CD0001A61394642462046FFF788FF0028E6D1B0
:102CE0002368F1E7020001002DE9FF479A460368D7
:102CF00015461A6842F480621A601A68DDE90C7899
:102D000042F480721A600E463B46CDF800800022E5
:102D10004FF001110446FFF737FF236848B11B68E5
:102D2000DB0502D54FF400732364032004B0BDE833
:102D3000F0875FFA86F906F0FE061E612A494346CF
:102D40003A462046FFF790FE08B10120EEE72368DF
:102D500003905A6903929B69039342463946204681
:102D6000039BFFF743FF40B1236C042B01BF226894
:102D7000136843F400731360E7E7BAF1010F2368A7
:102D80001AD1EDB21D61424639462046FFF72EFFAB
:102D90000028E9D12268136843F4807313604FF070
:102DA00001110246CDF800803B462046FFF7ECFEBD
:102DB000226860B11368B3E72A0A1A6139464246AD
:102DC0002046FFF713FF0028CED12368D9E749F04A
:102DD00001031361044943463A462046FFF744FE87
:102DE000003818BF0120A1E70200010070B50446B9
:102DF00008B9012070BD90F83D3003F0FF021BB907
:102E000080F83C20FFF798F9242384F83D302368AC
:102E10001A6822F001021A601A6842F400421A602D
:102E20001A6822F400421A6001F004F83F4A63680D
:102E3000934294BF3E4A3F4A90428CBF00220122F7
:102E4000002AD6D121683C4E4A68B0FBF6F622F043
:102E50003F0232434A60354A0D6A934284BF4FF4C1
:102E60009672724325F03F0591BF721C4FF47A763B
:102E7000B2FBF6F201322A430A62CD69421E2B48A8
:102E800025F44F45834225F0FF0532D85B00B2FBA5
:102E9000F3F340F6FC720133134242D0C3F30B0349
:102EA0002B43CB61D4E907300A68034322F0C00208
:102EB00013430B608A68D4E9030322F403420343FB
:102EC00022F0FF0213438B60D4E90530CA68034344
:102ED00022F0FF021343CB600B6843F001030B6049
:102EE00000202023206484F83D30206384F83E00D5
:102EF00080E7A06850B903EB4303B2FBF3F301335F
:102F0000C3F30B037BB143F40043C9E719204343E8
:102F1000B2FBF3F30133C3F30B0323B143F4404398
:102F2000BEE70423BCE70123BAE700BFA086010087
:102F30007F841E00FF083D0040420F002DE9F7434B
:102F4000044699460C9E0F469046FFF767FA94F8A0
:102F50003D30202B054603D0022003B0BDE8F083AE
:102F600000903C49192301222046FFF70DFE00285E
:102F7000F2D194F83C30012BEED02068012384F884
:102F80003C300368D9075EBF036843F00103036068
:102F9000036823F400630360212384F83D30402359
:102FA00084F83E30002323640A9B6362BDF82C3012
:102FB0006385638D2385284BE362CDE900654B462D
:102FC000424639462046FFF737FE00282AD0012026
:102FD000C3E7FFF70BFE40B1236C042B01BF22684F
:102FE000136843F400731360F1E7636A27681A46B5
:102FF00012F8011B39616262628D218D013A92B231
:1030000062857A69481E80B2520720850AD548B188
:103010005A783A6102336362638D013B02399BB295
:1030200021856385238D2A4631462046002BD0D149
:10303000FFF755FD0028CFD12268136843F40073D1
:103040001360202384F83D3084F83C0084F83E006F
:1030500083E700BF020010000000FFFF2DE9F043EE
:10306000044687B09946109F0D469046FFF7D6F963
:1030700094F83D30202B064604D00225284607B0A0
:10308000BDE8F08300907649192301222046FFF71E
:103090007BFD0028F1D194F83C30012BEDD0206865
:1030A000012384F83C300368DB075EBF036843F00C
:1030B00001030360036823F400630360222384F8A0
:1030C0003D30402384F83E30002323640E9B63622E
:1030D000BDF83C306385638D2385624BE3622946EE
:1030E000CDE900764B4642462046FFF7FDFD0546FA
:1030F00008B10125C2E7228D2368B2B902905A694E
:1031000002929A690292029A1A6842F400721A6054
:10311000DFF85481238D002B2CD1202284F83D2010
:1031200084F83C3084F83E30A8E7012A0AD11A68B6
:1031300022F480621A6003905A6903929A6903929A
:10314000039AE1E7022A0ED11A6822F480621A601B
:103150001A6842F400621A6004905A6904929B69EA
:103160000493049BD4E705905A6905929B690593E3
:10317000059BCDE7032B56D8012B15D13246394696
:103180002046FFF7D2FC0028B3D123681A69636A8E
:103190001A70636A01336362238D013B2385638D5B
:1031A000013B9BB26385B5E7022B00963B464FF08F
:1031B00000024146204619D1FFF7E6FC002898D1CD
:1031C00023681A6842F400721A601A69636A1A70F6
:1031D000626A531C6362238D013B2385638D013B2F
:1031E0009BB2638523681B695370D2E7FFF7CCFC61
:1031F00000287FF47EAF23681A6822F480621A6088
:103200001A69636A1A70636A009601336362238DD8
:10321000013B2385638D013B9BB2638502463B46A0
:1032200041462046C8E7324639462046FFF77DFC36
:1032300000287FF45EAF23681A69636A1A70626AB5
:10324000531C6362238D013B2385638D013B9BB23D
:1032500063852368596949077FF55CAFC3E700BF01
:10326000020010000000FFFF04000100F0B504465A
:103270008BB060B390F8BD33056803F0FF021BB953
:1032800080F8BC2302F008FD032384F8BD33EB6B08
:10329000254613F4807355F8100B08BF236101F025
:1032A00039FA0FCD6E460FC60FCD0FC695E8030055
:1032B00086E803002546271D97E80E0055F8100BF9
:1032C00001F072F9064620B1022384F8BD330125CE
:1032D00054E00146206801F023FA3046D4F804C0D7
:1032E0001C264FF0010E0146C2B2944500F10100C8
:1032F0001CD800231C261946D8B2844503F10103CB
:1033000022D80FCD6E460FC60FCD0FC695E803002D
:1033100086E8030097E80E00206801F067FA0123B1
:103320000546F0B1022284F8BD23D0E706FB024334
:10333000C3E9111183F83DE083F83C20A3F8422053
:1033400083F83F101965CFE706FB0042C2E98111FF
:1033500082F8FD1182F8FC0182F8FF11C2F8101208
:10336000CAE784F8380084F8BD33636A012B02D1C0
:10337000204600F07EFC206801F0BFFD28460BB01F
:10338000F0BD38B5044610B90125284638BD0323E1
:1033900080F8BD33006801F072FD05460028F3D1C6
:1033A000204602F0D3FC84F8BD53EEE710B5044686
:1033B000006894F8BC33012B15D0012384F8BC338A
:1033C000A36A012B06D1A369012B1EBF836B43F4B3
:1033D0008033836301F098F9206801F080FD0020BC
:1033E00084F8BC0310BD0220FCE738B590F8BC336C
:1033F000012B04461BD00568012380F8BC33284606
:1034000001F088F9206801F078FD2068102101F0B2
:10341000B7F9A36A012B06D1A369012B1EBFAB6BC1
:1034200023F48033AB63002084F8BC0338BD022052
:10343000FCE700002DE9F04F066887B004463046EF
:1034400001F098FD0290002840F03E81206801F0D4
:1034500062FD002800F03881206801F05CFD8207E1
:1034600048BF2268206842BF536903F002035361DA
:1034700001F051FDC3062AD52268936923F0100399
:103480009361376AC7F34343022B07F00F0540F0FF
:103490001E8147F6F0731F4214D01C2303FB054521
:1034A000C7F30A184246D5F80812304601F070FCFE
:1034B000D5F80822D5F8143242444344C5F808220E
:1034C000C5F814322268936943F0100393612068B1
:1034D00001F021FD070300F10E81206801F01BFDC2
:1034E00045030CD5206801F022FD2546039006F522
:1034F00010694FF00008039B002B40F0A581206865
:1035000001F009FD002815DAD6F8043823F001038C
:10351000C6F8043894F8F433012B40F026820021D9
:1035200084F8F413204602F057FD2268536903F033
:1035300000435361206801F0EEFC00050BD5D6F87E
:103540000838D90702D5204602F048FC22685369A2
:1035500003F400635361206801F0DDFC020114D51F
:1035600023685A6902F000625A6194F8F423002A31
:1035700040F0FF81012184F8F4135B6DC3F38303F2
:10358000C4F8F833204602F027FD206801F0C3FCA0
:10359000C30437D5D6F80438206823F0010310217E
:1035A000C6F8043801F0ECF806F5006506F510637E
:1035B0004FF67F3162680298824200F2DE81EB6949
:1035C00043F00113EB61236B002B00F0F281D5F87F
:1035D000843043F00B03C5F884306B6C43F00B036D
:1035E0006B64D6F80038217C206823F4FE63C6F8AB
:1035F000003804F5717201F0D1FC2268536903F4BC
:1036000080535361206801F086FC870416D520683A
:1036100001F0B4FC206801F09FF9E060256800F03B
:1036200003FC227B0146284600F0FEFF204602F004
:10363000C2FB2268536903F400535361206801F010
:103640006AFC060707D5204602F0B1FB22685369E1
:1036500003F008035361206801F05DFCC50208D542
:103660000021204602F0DAFB2268536903F480133C
:103670005361206801F04FFC800208D500212046EC
:1036800002F0C8FB2268536903F4001353612068F9
:1036900001F041FC410007D5204602F0C3FB22683F
:1036A000536903F080435361206801F034FC420702
:1036B0000AD523685D686B0702D5204602F0B6FB89
:1036C000226853682B43536007B0BDE8F08F062B88
:1036D0007FF4F8AE082204F57171304601F058FB12
:1036E0001C2303FB0545C7F30A17D5F814321F4402
:1036F000C5F81472E6E62068DFF8D0B201F00FFCDE
:1037000006F53067039004F5017A0025039B002B32
:103710003FF4E3AE039BD80756D55FFA85F92068DE
:10372000494601F00CFC10F0010F80461AD02068C9
:10373000216900F5306C01220CEB451CBA600129AF
:10374000036CDCF8082066D1110706D55B4509D962
:10375000100407D54FF4004302E091063CD5202326
:10376000CCF8083018F0080F1ED023680822BA6081
:103770001A6C03F5306303EB45135A45996804D975
:10378000090444BF4FF4004199602046049202F0BE
:10379000F7FA049A5A4507D92169012904D120680A
:1037A00004F5717201F0FAFB18F0100F1CBF102322
:1037B000BB6018F0200F1CBF2023BB6018F4005F13
:1037C0001CBF4FF40053BB60039B5B0801350393A0
:1037D00020370AF11C0A99E712F0280FC2D15B4585
:1037E00001D91204B6D4DCF81020DAF80010C2F3C4
:1037F00012028A1ACAF81020DAF804201144CAF812
:10380000041095B9D4F810227AB904F57172012127
:1038100001F0C4FB09E06C498B420BD1130499D42D
:10382000900602D52022CCF808204946204602F016
:10383000ADFA97E7002DF8D1D4F81022002AF4D180
:1038400004F571722946E3E7039BDA0740F18480AF
:103850005FFA88FB2068594601F07AFBC3070746E8
:1038600021D5D6F834382169012008F00F0200FA7A
:1038700002F223EA02038142C6F83438C9F808008C
:103880000DD1D5E911231344AB64B8F1000F06D173
:10389000236D23B9206804F5717201F07FFB59464E
:1038A000204602F07CFA380744BF0823C9F80830E4
:1038B000F90644BF1023C9F808307A0644BF4023F4
:1038C000C9F80830BB0744BF0223C9F808303F06D7
:1038D00042D5D5E914329A423ED89B1A6A6CD4F884
:1038E00000A0934228BF134603339B0804930AF5B4
:1038F000106303EB48130593059B04999A6992B2F0
:103900008A42D5E9147325D39F4200D95FB9DAF80A
:10391000343808F00F02012101FA02F223EA02030F
:10392000CAF8343818E0FF1A6B6C9F4228BF1F4654
:10393000FB1C9B080493237C0093A96CBBB25A46E2
:10394000504601F023F9AB6C3B44AB646B6D1F44F4
:103950006F65D1E79F42DAD9039B5B0808F1010844
:1039600003931C3509F12009C5E5204602F04EFA03
:10397000DBE5204602F032FA07E699601A6822F485
:1039800000121A601A6842F000621A60C3F8081246
:10399000D3F8002222F40012C3F80022D3F8002248
:1039A00042F00062C3F80022029A013202922033F0
:1039B00000E66B6943F4005343F02B036B612B6902
:1039C00043F00B032B610CE60A31544F0A30544F7D
:1039D00010B590F8BC23012A04460BD0012280F8D0
:1039E000BC2380F83810006801F069FA002084F8E0
:1039F000BC0310BD0220FCE770B501F00F06C6EB5A
:103A0000C60411F0800F05464FEA84044FF01C00F5
:103A10001FD000FB065004F13C010124294480F82A
:103A20003D408A604A780E70CB7002B1CE80022B86
:103A300004BF00230B7195F8BC33012B12D0012376
:103A4000286885F8BC3300F092FF002085F8BC039D
:103A500070BD00FB065004F5FE710024294480F877
:103A6000FD41DEE70220F3E710B5044601F00F0048
:103A7000C0EBC00311F0800F4FEA83034FF01C022C
:103A800016D002FB004203F13C010123214482F8DD
:103A90003D30087094F8BC33012B12D0012320680C
:103AA00084F8BC3300F0A2FF002084F8BC0310BDF2
:103AB00002FB004203F5FE710023214482F8FD3130
:103AC000E7E70220F3E738B501F00F051C2404FBFB
:103AD000050104FB050401F5FE71C4F81032002352
:103AE000C4F80822C4F8143284F8FD3184F8FC517B
:103AF00003690068012B08BFC4F80C22DAB21DB9B3
:103B000000F0CAFF002038BD01F054F8FAE738B5DC
:103B100001F00F051C2404FB050104FB05043C31E6
:103B20002365002363650123A26484F83D3084F893
:103B30003C5003690068012B08BFE264DAB21DB98A
:103B400000F0AAFF002038BD01F034F8FAE738B5DC
:103B5000436801F00F059D4204462CD811F0800FF8
:103B60004FF01C001ED000FB054200FB0541012365
:103B70003C3182F83D3001238B700D7094F8BC23EA
:103B80009A421AD0206884F8BC3301F024F92DB988
:103B9000217C206804F5717201F000FA002084F89D
:103BA000BC0338BD00FB01431A4603F5FE71002338
:103BB00082F8FD31DFE70120F3E70220F1E738B5B5
:103BC000436801F00F029A4204462AD8C2EBC203AE
:103BD00011F0800F4FEA83034FF01C0018D000FB58
:103BE000024003F13C010123214480F83D300025CF
:103BF0008D700A7094F8BC33012B14D00123206817
:103C000084F8BC3301F012F984F8BC53284638BD5F
:103C100000FB024003F5FE710023214480F8FD31D2
:103C2000E5E70120F3E70220F1E7006870B5120430
:103C3000446A19B922438262002070BD836A4D1E16
:103C400004EB134400235E1CDBB29D4205D83F31D8
:103C500000EB810022434260EEE7403300EB830338
:103C60005B6804EB13443346EDE7036800205962B8
:103C700070470268002180F8F4130123C0F8FC3378
:103C8000936943F000639361536D43F0805343F0B5
:103C90000303536508467047014B01221A607047C1
:103CA0004C004742104908B58B6803F00C03082B01
:103CB00018D14A684B6849680C4813F48003C1F373
:103CC000881118BF002302F03F02A1FB0001FCF79E
:103CD000A3FF054B5B68C3F3014301335B00B0FBFB
:103CE000F3F008BD0148FCE7003802400024F4006E
:103CF0002DE9F0410D46044610B90120BDE8F081E0
:103D0000444B1A6802F007028A4228D322689707B8
:103D10002DD4D00741D43F4B1A6802F00702AA42C3
:103D200066D8226851076CD4130707D53A4A21692F
:103D3000936823F4604343EAC1039360FFF7B2FF43
:103D4000354B364A9B68C3F30313D35CD840344BDE
:103D50001860344B1868FEF717FB0020CEE7CAB294
:103D60001A701B6803F007038B42C6D1CEE72A4BBB
:103D700012F0040F1EBF996841F4E05199601607D4
:103D800042BF996841F4604199602349A0688B68FB
:103D900023F0F00303438B60BBE762681E4B012AEC
:103DA0001CD11B6813F4003FA7D01B4EB36823F04F
:103DB00003031343B360FEF731FB41F28838074633
:103DC000B368626803F00C03B3EB820FA3D0FEF775
:103DD00025FBC01B4045F3D903208FE7911E012925
:103DE0001B6802D813F0007FDEE713F0020FDBE759
:103DF000EAB21A701B6803F00703AB427FF47DAF91
:103E00008FE70549E0688B6823F4E05303438B6038
:103E10008AE700BF003C0240003802408883000867
:103E20000000002008000020014B1868704700BF08
:103E300000000020044B054A9B68C3F38223D35C37
:103E4000034A1068D8407047003802409883000841
:103E5000000000207047000008B5054BDB681B061A
:103E600004D5FFF7F7FF034B80221A7008BD00BF8F
:103E7000003802400E38024002682DE9F34112F08A
:103E8000010504460BD08E494569D1F88C3023F0EA
:103E9000C0632B43B5FA85F5C1F88C306D099607E0
:103EA0000BD58748A169D0F88C3023F0C0530B4361
:103EB0000029C0F88C3008BF0125100730D5002339
:103EC00001937F4B7F4E1A6C42F080521A641B6C38
:103ED00003F080530193019B336843F48073336094
:103EE000FEF79CFA07463368D9055CD5744E336FEC
:103EF00013F4407360D1E36903F44072B2F5407F7C
:103F00006F4A78D1916823F0704021F4F81120F4C1
:103F1000407001439160116FC3F30B030B431367B0
:103F200023685F0742BF684B94F838201A60226804
:103F3000D60608D56249606AD1F8943023F440036C
:103F40000343C1F8943090060CD55D48A16AD0F8BF
:103F5000943023F000630B43B1F1006FC0F894304C
:103F600008BF0125510608D55549206AD1F894307B
:103F700023F080530343C1F89430012D3FD0802AB1
:103F80003DD02068C20500F1908010F4007010D080
:103F90004B4A216BD2F88C3023F400430B43C2F818
:103FA0008C30002005E0FEF739FAC01B02289AD9B0
:103FB000032002B0BDE8F081E26902F4407293424E
:103FC00099D0336F414A0121116023F440730021DD
:103FD00011603367336FDA078DD5FEF71FFA41F2B0
:103FE00088380746336F9B0785D4FEF717FAC01B46
:103FF0004045F7D9DCE7916821F4F8118AE7344DA0
:104000002F4F00232B60FEF709FA06463B681B0181
:1040100045D4304B626B1A602268D70701D56369BB
:104020008BB1960701D5A3696BB1900603D5A36A3E
:10403000B3F1006F07D0510612D5236A83B9A36A82
:10404000B3F1006F0CD1D4E902131B0643EA8113CC
:1040500061680B43216943EA01731949C1F884304F
:1040600012060CD5D4E902231B0643EA82136268C8
:104070001343226943EA0273114AC2F884300123D0
:104080002B60FEF7CBF90E4E054633681B013FF55A
:1040900078AFFEF7C3F9401B0228F6D988E7FEF790
:1040A000BDF9801B0228B1D982E7054AE16AD2F83E
:1040B0008C3023F000430B43C2F88C3065E700BF1F
:1040C0000038024000700040E0114742400E474275
:1040D00068004742D810474270B5414CFEF79EF940
:1040E000236843F00103054623602368980757D5EA
:1040F000236843F080032360FEF790F90023A36058
:10410000374C054641F28836A36813F00C0F4ED1A8
:10411000FEF784F9236823F450232360304C0546CE
:104120002368990349D4FEF779F9236823F0807353
:1041300023602B4C054623689A0144D4FEF76EF9A0
:10414000236823F080632360254C054623681B0108
:104150003FD4244B6360C4F88430E368224A23F4DC
:10416000F853E360E36823F40053E360E36843F447
:104170001F03E360E36843F40013E360636F23F01D
:1041800001036367636F43F080736367174B1A60C3
:10419000174B1868FEF7F8F8003818BF012005E043
:1041A000FEF73CF9401B02289FD9032070BDFEF7A3
:1041B00035F9401BB042A7D9F7E7FEF72FF9401BAE
:1041C0006428ADD9F1E7FEF729F9401B0228B2D9DE
:1041D000EBE7FEF723F9401B0228B7D9E5E700BF5C
:1041E00000380240103000240024F40000000020B9
:1041F000080000202DE9F341044640B30368DD07C1
:1042000010D4236898075ED423681A0700F1A080B1
:1042100023685B0700F1BE80A069002840F01F8181
:1042200000202BE0A74B9A6802F00C02042A07D06A
:104230009A6802F00C02082A0BD15A68510208D57C
:10424000A04B1B689A03DCD56368002BD9D10120F1
:1042500014E06268B2F5803F13D11A6842F48032EC
:104260001A60FEF7DBF8974E054633689B03C8D407
:10427000FEF7D4F8401B6428F7D9032002B0BDE84C
:10428000F081904DB2F5A02F2B6807D143F4802325
:104290002B602B6843F480332B60E2E723F48033F8
:1042A0002B602B6823F480232B60002AD9D1FEF7E2
:1042B000B5F806462B689F03A3D5FEF7AFF8801B21
:1042C0006428F7D9D9E77F4B9A6812F00C0F07D012
:1042D0009A6802F00C02082A11D15B685E020ED4C3
:1042E000784B1A68950702D5E268012AAFD11A689F
:1042F000216922F0F80242EAC1021A6084E7E2680A
:10430000714BB2B101221A60FEF788F86D4D064676
:104310002B68980707D52B68226923F0F80343EA36
:10432000C2032B6070E7FEF779F8801B0228EFD9F3
:10433000A3E71A60FEF772F8624E054633689907E4
:104340007FF562AFFEF76AF8401B0228F6D994E7C2
:1043500062695E4B7AB101221A60FEF75FF8594E2E
:104360000546736F9F073FF553AFFEF757F8401BA5
:104370000228F6D981E71A60FEF750F8514E05463B
:10438000736F98077FF544AFFEF748F8401B02288B
:10439000F6D972E74B4B1A6C12F0805228D1019279
:1043A0001A6C42F080521A641B6C03F08053019324
:1043B000019B0127464D2B68D9051BD5A368414DAC
:1043C000012B27D12B6F43F001032B67FEF726F853
:1043D0003C4E054641F28838336F9B0739D5002F94
:1043E0003FF41AAF374A136C23F08053136413E77A
:1043F0000027DFE72B6843F480732B60FEF70EF88D
:1044000006462B68DA05D9D4FEF708F8801B022887
:10441000F7D932E7052B04D12B6F43F004032B6748
:10442000D0E72A6F22F001022A672A6F22F00402E5
:104430002A67002BCAD1FDF7F1FF41F28838064602
:104440002B6F9807CBD5FDF7E9FF801B4045F7D9C7
:1044500013E7FDF7E3FF401B4045BDD90DE7194DBC
:10446000AB6803F00C03082B49D01A4E0023022836
:10447000336037D1FDF7D2FF07462B6899012BD463
:10448000D4E907321343626A43EA8213E26A43EAD9
:104490000263226B43EA0273A26A5208013A43EABA
:1044A00002436B6001233360FDF7B8FF054D0446FE
:1044B0002B689A013FF5B4AEFDF7B0FF001B022850
:1044C000F6D9DAE60038024000004742800E474243
:1044D0000070004060004742FDF7A0FFC01B0228AB
:1044E000CBD9CAE6FDF79AFF04462B689B017FF5FE
:1044F00097AEFDF793FF001B0228F6D9BDE6012811
:104500003FF4BCAE6B68E26903F4800191427FF432
:104510009EAE216A03F03F028A427FF498AE616A40
:1045200047F6C0721A40B2EB811F7FF490AEA26AC8
:10453000520803F44031013AB1EB024F7FF487AEE9
:10454000E16A03F07062B2EB016F7FF480AE226B20
:1045500003F0E043B3EB027F3FF462AE77E600BFC7
:1045600082B000230F4A0193019B013393420193D0
:1045700015D80369002BF7DA002301930369094A70
:1045800043F001030361019B01339342019306D879
:10459000036913F00103F6D1184602B070470320F7
:1045A000FBE700BF400D030084B038B505AD85E8DA
:1045B0000E000A9B012B044625D1836B23F4803324
:1045C0008363C36823F4840323F04003C360C36898
:1045D00023F44013C360119B012B02BFC36843F453
:1045E0008013C360FFF7BCFF089B012B07D1A368B2
:1045F00043F00603A360A36843F02003A360BDE873
:10460000384004B07047C36843F04003C360FFF70D
:10461000A7FF0E9B23B9A36B43F48033A363E3E7A7
:10462000A36B23F48033F9E7022A4AD1274B284AA7
:104630000B44934239D9274B274A0B44934236D92E
:10464000264AA1F57403A3F51053934231D9244AA5
:10465000A1F18373A3F5E74393422CD3214B224A64
:104660000B44934229D9214B214A0B44934226D330
:10467000204B214A0B44934223D3204AA1F1B77324
:10468000A3F5585393421ED31D4B1E4A0B4493422D
:1046900034BF07230623C26822F47052C260C26886
:1046A00042EA8323C360002070470F23F3E70E2301
:1046B000F1E70D23EFE70C23EDE70B23EBE70A23EC
:1046C000E9E70923E7E70823E5E700BF405327FFB1
:1046D000FF340C00401E1BFF3F420F007F4F1200B3
:1046E00020D6130060B6E5FE5FE3160000D3CEFED1
:1046F00040771B00C05BB3FEC091210020753800DD
:10470000E05459FEE09C4100836843F0010383605C
:1047100000207047836823F0010383600020704706
:1047200038B5C368012923F0C0430546C36010D1E2
:10473000C36843F00053C36000240120FDF774FEFA
:104740006B69D90704F1010415D4322CF5D101208D
:1047500038BD0029FBD1C36843F08043C3600C46D9
:104760000120FDF761FE6B69DA0704F1010402D54F
:10477000322CF5D1EBE7A4F1320358425841E7E778
:1047800082B08901002341F02001084A01930161B0
:10479000019B01339342019306D8036913F0200370
:1047A000F6D1184602B070470320FBE7400D030026
:1047B00082B000230193084A10230361019B013357
:1047C0009342019306D8036913F01003F6D11846FB
:1047D00002B070470320FBE7400D0300D0F800381B
:1047E0001943C0F8001800207047000084B02DE97C
:1047F000F843044609A880E80E000023139D0E46E6
:10480000194603F1400204EB820201330F2B516081
:10481000F7D104F50067002D6CD17B6843F00203EB
:104820007B60A36B23F40013A363236843F040036E
:104830002360236843F0800323600023C4F8003E14
:10484000D4F80038C4F800380E9B012B59D10B99CD
:10485000002954D12046FFF7C1FF10212046FFF761
:104860008FFF01462046FFF7A3FF0843C0B2002395
:1048700000383B6118BF01207B6104F51062FB61C9
:1048800019464FF0904C4FF0006E4FF67F38B34210
:1048900039D1002204F5306311464FF0904C4FF0AF
:1048A000006E4FF67F38B24240D13B6923F48073EB
:1048B0003B610023A3616FF0804363610C9B1BB9D4
:1048C000A36943F01003A361A269224B1343A361C0
:1048D0000F9B1BB1A36943F00803A361012D01BF26
:1048E000A36943F0804343F00403A361BDE8F843A8
:1048F00004B07047A36B43F40013A3639DE719460C
:10490000A8E70321A6E7D2F80090B9F1000F0BDA6F
:104910003BB9C2F800E011610133C2F808802032CF
:10492000B5E7C2F800C0F6E71160F4E7D3F80090ED
:10493000B9F1000F0BDA3AB9C3F800E0196101329E
:10494000C3F808802033AEE7C3F800C0F6E719606B
:10495000F4E700BF00383C80D0F8083813F00600B8
:1049600004D013F0020F14BF02200F20704730B59F
:104970000D78012405F00F039C404B7800F5006290
:10498000012B00EB4510D36918D11C43D461D0F83A
:1049900000391A0410D48A68D0F80049C2F30A0317
:1049A000CA78234343EA824343EA855343F0805362
:1049B00043F40043C0F80039002030BD43EA04440A
:1049C000D461D0F8003B1B04F6D48B68D0F8002BE0
:1049D000C3F30A031343CA7843EA824343F0805384
:1049E00043F40043C0F8003BE6E7000010B50A7846
:1049F0004978012900EB421300F5006002F00F0234
:104A000022D1D3F8001900290BDAD3F8001941F0AC
:104A10000061C3F80019D3F8001941F08041C3F8D0
:104A20000019C46B012101FA02F224EA0204C463F2
:104A3000C16921EA0202C261D3F80019144A0A408E
:104A4000C3F80029002010BDD3F8001B00290BDAA1
:104A5000D3F8001B41F00061C3F8001BD3F8001B22
:104A600041F08041C3F8001BC46B4FF4803101FA60
:104A700002F224EA0204C463C16921EA0202C261AB
:104A8000D3F8001B034A0A40C3F8002BDAE700BF43
:104A9000007833EC0078F3EF4B78DFF8ECC0F0B53A
:104AA0000E784D69374F012B00EB461446D104F5C3
:104AB0001063BDB91D692F401F611D6945F40025B4
:104AC0001D611D6905EA0C05012A1D6123D10A69D2
:104AD00002B15A61D4F8003943F00443C4F80039F4
:104AE0000020F0BDD3F810E00EEA0C0CC3F810C0A3
:104AF000D3F810C00CEA07071F618F68AF421D6929
:104B000038BF4F6145F400251D614D691F69C5F32C
:104B100012053D43D8E7D4F8003943F00443C4F804
:104B200000394B69002BDBD0D0F8342806F00F0693
:104B30000123B3401343C0F83438D1E7D4F8100B45
:104B400000EA0C00C4F8100BD4F8100B384004F540
:104B500030631861886805B148611D6945F4002516
:104B60001D611D69C0F312002843012A186102D19A
:104B7000CA6802B15A61D4F8003B43F00443C4F858
:104B8000003BADE7FFFF07E00000F8FF10B59DF820
:104B9000084044B9033301329B0800EB023001EBBB
:104BA00083038B4201D1002010BD51F8042B026019
:104BB000F7E700002DE9F3414D780F784B69CE7887
:104BC000DFF8C0C1DFF8C0E1012D00EB471440F071
:104BD0008E8004F51065D5F810806BBB08EA0C0CCC
:104BE000C5F810C0D5F810C04CF4002CC5F810C0A2
:104BF000D5F810C00CEA0E0EC5F810E0012A4ED10F
:104C00000B6903B16B61012E0CD1D0F8083813F495
:104C1000807FD4F800390CBF43F0005343F0805339
:104C2000C4F80039D4F8003943F00443C4F800391B
:104C3000002002B0BDE8F08108EA0E0EC5F810E0D1
:104C4000D5F810E00EEA0C0CD1F808E0C5F810C059
:104C50000EEB030C0CF1FF3CBCFBFEFEDFF82CC19D
:104C6000D5F810800CEACE4C4CEA080CC5F810C000
:104C7000D5F810E0C3F3120C4CEA0E0C012EC5F867
:104C800010C0BBD1D5F810C02CF0C04CC5F810C076
:104C9000D5F810C04CF0005CC5F810C0AEE7D4F8F1
:104CA0000059012E45F00445C4F800590BD0002BE3
:104CB000BED0D0F8343807F00F02012797401F43C9
:104CC000C0F83478B4E7D0F8085815F4807FD4F8E9
:104CD00000590CBF45F0005545F08055C4F8005907
:104CE0000092C9689BB23A46FFF750FFA0E7D4F89C
:104CF000105B05EA0E05C4F8105BD4F8105B05EAFA
:104D00000C0504F530673D618D681BBB3B69C5F33D
:104D100012051D433D613B6943F40023012A3B61B9
:104D200002D1CB6803B17B61012E0CD1D0F80838D9
:104D300013F4807FD4F8003B0CBF43F0005343F0E2
:104D40008053C4F8003BD4F8003B43F00443C4F85C
:104D5000003B6DE7DFF834C0D7F810E02B44013B8F
:104D6000B3FBF5F30CEAC34C4CEA0E0CC7F810C0C9
:104D70009BB2D7F810C06B43C3F3120343EA0C0392
:104D8000CCE700BFFFFF07E00000F8FF0000F81FBE
:104D900070B50023940800F5805502F00302A34289
:104DA00014D301EB84017AB100F58050002304682C
:104DB000D80024FA00F0C854013398B28242F7D1E7
:104DC000013A92B201321144084670BD2E6841F892
:104DD00023600133E3E74A780B78012A00EB4310A4
:104DE00012D1D0F80029002A06DB2BB1D0F8003907
:104DF00023F08043C0F80039D0F8003943F40013A1
:104E0000C0F8003900207047D0F8002B002A06DBDC
:104E10002BB1D0F8003B23F08043C0F8003BD0F822
:104E2000003B43F40013C0F8003BEBE70B784A78F3
:104E300000EB4310CB78012AA3F10203DBB20FD1C0
:104E4000D0F80029012B22F40012C0F8002905D85F
:104E5000D0F8003943F08053C0F800390020704783
:104E6000D0F8002B22F40012012BC0F8002B9EBFBB
:104E7000D0F8003B43F08053C0F8003BEEE710B59C
:104E800000F51063044600F52E614FF67F329A60FC
:104E9000C3F8082220338B42F9D10022C4F810282D
:104EA0002046C4F81428C4F81C28FFF781FC28B950
:104EB00020461021BDE81040FFF762BC10BDD0F8BD
:104EC000003823F4FE63C0F80038D0F80038090138
:104ED00001F4FE611943C0F8001800207047D0F8B3
:104EE000003E23F00303C0F8003ED0F8043823F05E
:104EF0000203C0F8043800207047D0F8003E23F0C9
:104F00000303C0F8003ED0F8043843F00203C0F8B1
:104F10000438002070474269806910407047D0F81B
:104F2000183800F50060C0691840000C7047D0F8D0
:104F3000183800F50060C069184080B2704700EB77
:104F4000411100F50060D1F8082B4069104070470E
:104F500010B5D0F81048D0F8343800EB411001F00B
:104F60000F01CB4000F51060DB018068DBB223430A
:104F7000184010BD406900F001007047D0F80039BA
:104F800023F4FF6323F00703C0F80039D0F8043896
:104F900043F48073C0F804380020704730B5056CC6
:104FA000104CA54200F5306303D9D0F8004B002C1B
:104FB00016DB00241C611C6944F400241C611C697C
:104FC00044F018041C611C69012944F0C0441C61B0
:104FD00001BF5A61D0F8003B43F08023C0F8003B8A
:104FE000002030BD0A30544F292303800048704709
:104FF00044000020292303800048704770000020EF
:105000002923038000487047B4000020D0F8BC3248
:10501000002083F82000704708B5D0F8BC3233B1C7
:10502000D0F8C0221846D2689047002008BD03205F
:10503000FCE710B5D0F8BC4254B1E369012B09D1AB
:10504000D0F8C0322046DB6898470020E06110BDF0
:105050000320FCE70020FAE70A230380004870479A
:10506000A800002037B5D0F8BC320022ADF80620E9
:10507000002B56D00C7814F0600427D0202C4ED191
:105080004A78023A092A4AD8DFE802F0150B494962
:105090004949491911058A781A610024204603B04C
:1050A00030BD012203F1100100F0E4FCF5E74A886D
:1050B000120A5A61F1E7012203F11401F4E7012217
:1050C000DA61CA88194600F0EAFCE6E74D780B2D54
:1050D00025D801A252F825F0095100089D5000087A
:1050E0001F5100081F5100081F5100081F510008E0
:1050F000275100081F5100081F5100081F510008C8
:10510000595100086951000890F89C32032B06D1D0
:1051100002220DF1060100F0ADFC2C46BEE700F0C6
:1051200082FC0324BAE74B881B0A222B09D1CA88C8
:10513000D0F8C032422A196828BF422200F09AFCF7
:10514000ACE7212B05D1CA880B49092A28BF0922BF
:10515000F4E700210A46F1E790F89C22032ADED109
:10516000012203F11801E9E790F89C22032AD6D125
:105170008A789A6192E700BF9C00002038B5044607
:105180008121002500F0C0FEA5630121204600F02A
:10519000BBFED4F8BC32C4F878514BB1D4F8C0325D
:1051A0009B689847D4F8BC0200F04CFFC4F8BC528E
:1051B000002038BDF8B50446242000F03FFF054626
:1051C000C4F8BC0208B90220F8BD237C13BB052338
:1051D00001276387A4F87A310322402381212046E6
:1051E00000F082FE0026032239464023278720460E
:1051F00000F07AFEA4F8787185F82060D4F8C03207
:105200005B6898470D232A463946204600F0D6FEB3
:105210003046D9E70123DBE738B51346D0F8BC2286
:105220007AB190F89C42032C0DD192F820400125D0
:105230005CB982F820500A46812100F0B1FE204678
:1052400038BD0324FBE70024F9E72C46F7E7D0F844
:10525000BC2208B52AB10D23012100F0AFFE0020C9
:1052600008BD0320FCE719B1C0F8C0120020704748
:105270000320704708B588B10023C0F8B832C0F8E1
:10528000C032C0F8CC3209B1C0F8B412012380F8A2
:105290009C320270BDE8084000F0CCBD054800F02B
:1052A00013FF054800F010FF0A2000F025FF03203F
:1052B00008BD00BFA0830008A883000810B50446FD
:1052C00000F004FE012384F89C32D4F8B83243B1D4
:1052D0005B682179204698470023C4F8B832C4F8A7
:1052E000C0320023C4F8B432C4F8CC322046BDE842
:1052F000104000F0CFBD000037B500250446ADF8E2
:10530000065059B90C4800F0DFFE0C4800F0DCFEF6
:105310000A2000F0F1FE032003B030BDCB6AC0F8D4
:10532000B81233B10DF106009847C4F8CC022846F4
:10533000F2E71846F0E700BFA0830008BE8300082C
:1053400000F0B6BD10B5044600F0C0FDD4F8B83288
:105350001BB15B68217920469847002010BDD0F82A
:10536000B8320BB11B6818470320704708B5D0F856
:10537000B8320BB15B689847002008BD38B50446C9
:1053800000F2AA25284600F03AFB012394F8AA125D
:10539000C4F89432B4F8B032C4F8983201F01F0364
:1053A000012B08D0022B0CD08BB929462046BDE832
:1053B000384000F025B929462046BDE8384000F0C5
:1053C00069BA29462046BDE8384000F089BA20462F
:1053D00001F08001BDE8384000F0A4BD70B504467E
:1053E0001546F9B9D0F89432032B0CD1D0E95732D5
:1053F00093420AD99B1A9A42C0F85C3128BF1A46D8
:10540000294600F059FB002070BD90F89C32032B18
:1054100004D1D0F8B8321B6903B19847204600F098
:1054200053FBF0E790F89C32032BECD1D0F8B83264
:105430009B69002BE7D0BDE87040184773B5044660
:10544000164600293FD1D0F89422022A0FD1D0E984
:105450000752954215D9AA1A0191C261314600F04E
:1054600016FB019B1A461946204600F0A7FD94F84A
:10547000A032012B02D1002384F8A032002002B018
:1054800070BD0ED1826995420BD8D0F89852AA42CD
:1054900007D20A46019100F0FAFA019BC4F898324B
:1054A000E0E794F89C32032B05D1D4F8B832DB68DE
:1054B0000BB1204698478021204600F033FD20465E
:1054C00000F00DFBD3E790F89C32032BD6D1D0F837
:1054D000B8325B69002BD1D002B0BDE870401847EC
:1054E000012370B580F89C32D0F8B8320021044610
:1054F000C0F894124160C0F8A412DBB1D0F8BC220D
:1055000012B15B6803B19847002211464025402341
:105510000126204600F0E8FCA4F86461C4F860515C
:105520002B4600228021204600F0DEFCA684256266
:10553000002070BD0320FCE701740020704790F844
:105540009C32DBB280F89D32042380F89C3200202C
:10555000704790F89C32042B02BF90F89D32DBB26A
:1055600080F89C3200207047D0F8B82208B542B1CC
:1055700090F89C32032B02D1D36923B198470020C5
:1055800000E0032008BD1846FCE7D0F8B82208B5B3
:1055900042B190F89C32032B02D1136A23B1984791
:1055A000002000E0032008BD1846FCE7D0F8B82230
:1055B00008B542B190F89C32032B02D1536A23B153
:1055C0009847002000E0032008BD1846FCE70020B3
:1055D0007047012208B580F89C22D0F8B82212B199
:1055E000526801799047002008BD10B5802104461B
:1055F00000F098FC20460021BDE8104000F092BC6D
:10560000F7B50D7805F06005202D04460E4614D040
:10561000402D12D0002D40F008814F78092F00F264
:105620000481DFE817F00901290102011F010201CD
:10563000890014000201F100A500D4F8B832314607
:105640009B68204698470546284603B0F0BD0023D6
:10565000ADF806304B881A0A013A0E2A0DD8DFE859
:1056600002F01029360C0C56600C0C0C0C0C0C0CB7
:105670000800D0F8B432DB6933B92046FFF7B5FF34
:10568000E2E7D0F8B4321B68207C0DF106019847A0
:10569000F288002A00F0EC80BDF80630002BECD038
:1056A0009A4228BF1A46ADF806200146204600F06F
:1056B000E1F9C9E7027CD0F8B83232B99B6A0DF142
:1056C0000600984702234370E2E7DB6AF7E7DBB2A4
:1056D000052BD2D8DFE803F003070B0F1317D0F820
:1056E000B4325B68C8E7D0F8B4329B68C4E7D0F83E
:1056F000B432DB68C0E7D0F8B4321B69BCE7D0F83D
:10570000B4325B69B8E7D0F8B4329B69B4E7037C84
:10571000002BB2D1D0F8B8320DF106005B6B984780
:10572000B6E7037C002BA8D1D0F8B8320DF1060003
:105730001B6B98470723C6E78B88002B9DD1CB882E
:10574000002B9AD14E887F2E97D890F89C32032B4D
:1057500093D0F1B280F89E1200F014FC204600F0C5
:10576000B3F91EB1022384F89C326DE70123FAE7F6
:105770008E78474F012E3E7003D9FFF736FF032581
:1057800062E790F89C32022BDAB208D0032A15D0D7
:10579000FFF72BFF39782046FFF7E8FDEFE7002EF3
:1057A00066D001214160FFF7DAFD05462046002D55
:1057B0007FF464AF00F088F90323D4E75EB90223D5
:1057C00080F89C3246603146FFF7D0FD204600F05D
:1057D0007BF9354638E74168012949D0C9B2FFF75E
:1057E000C5FD397861602046FFF7B9FD06460028FF
:1057F0003ED02046FFF7F9FE21792046FFF7B6FD9F
:10580000022384F89C32E4E7CA88012A7FF435AF8A
:1058100090F89C120229CBB205D833B1014600237F
:1058200041F8083F42E7032B04D02046FFF7DDFE96
:10583000002509E7011D39E790F89C32013B022B56
:10584000F3D8CA88022A7FF418AFD0F8A4320146F0
:10585000002B14BF1346002341F80C3F00F00AF957
:105860003D46F1E64B88012B7FF4EEAEC4F8A4323E
:10587000204600F029F9E7E690F89C32013B022B24
:10588000D3D84B88012B7FF4DFAE0023EEE700BFB7
:105890002002002070B50B7803F06002402A044615
:1058A0000E4601D05B0616D494F89C32013B022BC5
:1058B00011D83379012B0ED8D4F8B83231469B6811
:1058C00020469847F38805461BB910B9204600F0DA
:1058D000FBF8284670BD2046FFF787FE0025F8E755
:1058E00070B50B7803F06003202B04460D4652D0B0
:1058F000402B50D06BBB6B788A880979012B39D04B
:10590000032B1FD02BBB90F89C32022BD8B253D064
:1059100003281ED101F00F0312F0800F4FF0140284
:1059200002FB034357D09B8C9BB101F07F051423EE
:1059300005FB0333E51811F07F0358D12B600222D9
:10594000294644E090F89C32022BDAB22BD0032A8D
:1059500003D02046FFF749FE0AE06B882BB94A06C0
:1059600003D0EB880BB900F0DDFA204600F0ACF86C
:10597000002070BD90F89C32022BDAB213D0032ABB
:10598000E7D16B88002BF3D14E0601D000F0D8FA96
:10599000204600F099F8D4F8B832294620469B6892
:1059A000BDE8704018474B06D3D000F0BBFA802109
:1059B000204600F0B7FADBE74906CAD113064CBF10
:1059C00004F1140104F5AA7100230B6002222046A1
:1059D00000F050F8CCE7B3F86431002BB9D001F0F7
:1059E0007F05142303FB054505F5AA75A3E72046AB
:1059F00000F0B4FA08B10123A0E728609FE70B7814
:105A000003704B784370CA788B7843EA0223438053
:105A10004A790B7943EA02238380CA798B7943EA76
:105A20000223C380704710B58021044600F07AFA43
:105A300020460021BDE8104000F074BA30B588B1AE
:105A4000002501382B460135445D002CFAD1DBB22C
:105A500001335B0013800B7003234B70022310F89B
:105A6000012F02B930BDCA545A1CD2B202338C5431
:105A7000DBB2F4E710B502241346C0E90622C0F8F1
:105A800094420A46002100F08BFA002010BD08B5B0
:105A900013460A46002100F083FA002008BD10B525
:105AA00003241346C0E95622C0F894420A46002156
:105AB00000F084FA002010BD08B513460A46002104
:105AC00000F07CFA002008BD08B504220023C0F8CD
:105AD000942219461A4600F063FA002008BD08B562
